:020000040000FA
:100000000C945C000C9494010C946D010C94790098
:100010000C9479000C9479000C9479000C9479007C
:100020000C9479000C9479000C9479000C9479006C
:100030000C9479000C9479000C9479000C9479005C
:100040000C9423010C9479000C9479000C947900A1
:100050000C9479000C9479000C9479000C9479003C
:100060000C9479000C947900000000002400270013
:100070002A0000000000250028002B0004040404CE
:100080000404040402020202020203030303030342
:10009000010204081020408001020408102001021F
:1000A00004081020000000080002010000030407FB
:1000B000000000000000000011241FBECFEFD8E0B8
:1000C000DEBFCDBF11E0A0E0B1E0E0E4F6E002C0A9
:1000D00005900D92A430B107D9F721E0A4E0B1E07A
:1000E00001C01D92A831B207E1F70E94BB010C9438
:1000F0001E030C94000090E0FC01EC55FF4F24918E
:10010000FC01E057FF4F3491FC01E458FF4FE491AC
:10011000EE23C9F0222339F0233001F1A8F4213075
:1001200019F1223029F1F0E0EE0FFF1FEE58FF4FDA
:10013000A591B4918FB7F894EC91611126C03095D8
:100140003E233C938FBF08952730A9F02830C9F093
:10015000243049F7809180008F7D03C0809180001A
:100160008F7780938000DFCF84B58F7784BDDBCF1E
:1001700084B58F7DFBCF8091B0008F778093B000E6
:10018000D2CF8091B0008F7DF9CF3E2BDACFCF93C5
:10019000DF9390E0FC01E057FF4F249184589F4F7C
:1001A000FC0184918823D1F090E0880F991FFC0115
:1001B000E859FF4FA591B491FC01EE58FF4FC5914E
:1001C000D49161110EC09FB7F8948C91E22FE09505
:1001D0008E238C932881E223E8839FBFDF91CF9108
:1001E00008958FB7F894EC91E22BEC938FBFF6CF84
:1001F00008958091090190910E01911119C081110A
:100200001EC081E080930E012FB7F89480911401F5
:1002100090911501A0911601B09117012FBF809305
:100220000A0190930B01A0930C01B0930D01089566
:10023000811105C0809104018111E3CF089581E00F
:1002400080930401FBCF1F920F920FB60F921124DF
:100250002F933F938F939F93AF93BF9380911401FC
:1002600090911501A0911601B091170130911301E1
:1002700023E0230F2D3758F50196A11DB11D2093C2
:1002800013018093140190931501A0931601B0936C
:10029000170180910F0190911001A0911101B0916F
:1002A00012010196A11DB11D80930F0190931001C1
:1002B000A0931101B0931201BF91AF919F918F91C3
:1002C0003F912F910F900FBE0F901F90189526E829
:1002D000230F0296A11DB11DD2CF1F920F920FB610
:1002E0000F9211242F933F934F935F936F937F93BC
:1002F0008F939F93AF93BF93EF93FF93E09102018E
:10030000F09103010995FF91EF91BF91AF919F91FA
:100310008F917F916F915F914F913F912F910F90AE
:100320000FBE0F901F9018951F920F920FB60F924D
:1003300011242F933F934F935F936F937F938F93EA
:100340009F93AF93BF93EF93FF93E0910001F091E0
:1003500001010995FF91EF91BF91AF919F918F910D
:100360007F916F915F914F913F912F910F900FBEB1
:100370000F901F901895789484B5826084BD84B5E1
:10038000816084BD85B5826085BD85B5816085BD90
:1003900080916E00816080936E0010928100809148
:1003A00081008260809381008091810081608093D0
:1003B0008100809180008160809380008091B100F5
:1003C00084608093B1008091B00081608093B00020
:1003D00080917A00846080937A0080917A008260B4
:1003E00080937A0080917A00816080937A00809176
:1003F0007A00806880937A001092C10060E082E009
:100400000E94C70061E083E00E94C70061E084E0D1
:100410000E94C70061E085E00E94C70061E086E0BD
:100420000E94C70061E087E00E94C70061E085E0AC
:100430000E947B0060E084E00E947B0060E083E03B
:100440000E947B0061E086E00E947B0060E087E024
:100450000E947B0089EF90E090930101809300015E
:10046000809169008C7F826080936900E89A84EFB4
:10047000C82EDD24D394E12CF12CC0E0D0E0809193
:100480000E01882309F48FC02FB7F89460911401EE
:100490007091150180911601909117012FBF009165
:1004A0000A0110910B0120910C0130910D01601B8C
:1004B000710B820B930B683B2BE072078105910552
:1004C00050F460E085E00E947B0061E084E00E94DF
:1004D0007B0060E00FC0683823E172078105910559
:1004E00090F460E085E00E947B0060E084E00E9480
:1004F0007B0061E083E00E947B0061E086E00E9477
:100500007B0060E017C0603127E27207810591052A
:10051000D0F460E085E00E947B0060E084E00E940F
:100520007B0061E083E00E947B0060E086E00E9447
:100530007B0061E087E00E947B00209709F49FCF59
:100540000E9400009CCF60382EE372078105910560
:1005500088F4A70196010E94FC0261E020FD60E0A2
:1005600087E00E947B0061E083E00E947B0060E006
:1005700086E0E1CF10920E0181E0809309012FB750
:10058000F8948091140190911501A0911601B091F9
:1005900017012FBF8093050190930601A0930701D7
:1005A000B0930801CACF809109018823E1F02FB7E9
:1005B000F8948091140190911501A0911601B091C9
:1005C00017012FBF4091050150910601609107016D
:1005D00070910801841B950BA60BB70B88389341CB
:1005E000A105B10530F461E085E00E947B0060E088
:1005F0006DCF10920901A1CFA1E21A2EAA1BBB1B3D
:10060000FD010DC0AA1FBB1FEE1FFF1FA217B307DE
:10061000E407F50720F0A21BB30BE40BF50B661FF4
:10062000771F881F991F1A9469F7609570958095B8
:1006300090959B01AC01BD01CF010895F894FFCFC7
:04064000F800F800C6
:107E0000112484B714BE81FFF0D085E080938100F7
:107E100082E08093C00088E18093C10086E0809377
:107E2000C20080E18093C4008EE0C9D0259A86E02C
:107E300020E33CEF91E0309385002093840096BBD3
:107E4000B09BFECF1D9AA8958150A9F7CC24DD24C4
:107E500088248394B5E0AB2EA1E19A2EF3E0BF2EE7
:107E6000A2D0813461F49FD0082FAFD0023811F036
:107E7000013811F484E001C083E08DD089C08234E0
:107E800011F484E103C0853419F485E0A6D080C0E4
:107E9000853579F488D0E82EFF2485D0082F10E0AE
:107EA000102F00270E291F29000F111F8ED06801E7
:107EB0006FC0863521F484E090D080E0DECF843638
:107EC00009F040C070D06FD0082F6DD080E0C81688
:107ED00080E7D80618F4F601B7BEE895C0E0D1E017
:107EE00062D089930C17E1F7F0E0CF16F0E7DF06D8
:107EF00018F0F601B7BEE89568D007B600FCFDCFD4
:107F0000A601A0E0B1E02C9130E011968C91119780
:107F100090E0982F8827822B932B1296FA010C0160
:107F200087BEE89511244E5F5F4FF1E0A038BF0790
:107F300051F7F601A7BEE89507B600FCFDCF97BE46
:107F4000E89526C08437B1F42ED02DD0F82E2BD052
:107F50003CD0F601EF2C8F010F5F1F4F84911BD097
:107F6000EA94F801C1F70894C11CD11CFA94CF0C13
:107F7000D11C0EC0853739F428D08EE10CD085E9AC
:107F80000AD08FE07ACF813511F488E018D01DD067
:107F900080E101D065CF982F8091C00085FFFCCF94
:107FA0009093C60008958091C00087FFFCCF809118
:107FB000C00084FD01C0A8958091C6000895E0E648
:107FC000F0E098E1908380830895EDDF803219F02E
:107FD00088E0F5DFFFCF84E1DECF1F93182FE3DFCA
:107FE0001150E9F7F2DF1F91089580E0E8DFEE27F6
:047FF000FF270994CA
:027FFE00040479
:00000001FF
